{
  "address": "0x322813Fd9A801c5507c9de605d63CEA4f2CE6c44",
  "abi": [
    {
      "inputs": [
        {
          "internalType": "address",
          "name": "exampleExtetrnalContractAddress",
          "type": "address"
        }
      ],
      "stateMutability": "payable",
      "type": "constructor"
    },
    {
      "anonymous": false,
      "inputs": [
        {
          "indexed": false,
          "internalType": "string",
          "name": "debugMessage",
          "type": "string"
        }
      ],
      "name": "Log",
      "type": "event"
    },
    {
      "anonymous": false,
      "inputs": [
        {
          "indexed": true,
          "internalType": "address",
          "name": "sender",
          "type": "address"
        },
        {
          "indexed": false,
          "internalType": "uint256",
          "name": "amount",
          "type": "uint256"
        }
      ],
      "name": "Stake",
      "type": "event"
    },
    {
      "stateMutability": "payable",
      "type": "fallback"
    },
    {
      "inputs": [],
      "name": "balance",
      "outputs": [
        {
          "internalType": "uint256",
          "name": "",
          "type": "uint256"
        }
      ],
      "stateMutability": "view",
      "type": "function"
    },
    {
      "inputs": [
        {
          "internalType": "address",
          "name": "",
          "type": "address"
        }
      ],
      "name": "balances",
      "outputs": [
        {
          "internalType": "uint256",
          "name": "",
          "type": "uint256"
        }
      ],
      "stateMutability": "view",
      "type": "function"
    },
    {
      "inputs": [],
      "name": "deadLine",
      "outputs": [
        {
          "internalType": "uint256",
          "name": "",
          "type": "uint256"
        }
      ],
      "stateMutability": "view",
      "type": "function"
    },
    {
      "inputs": [],
      "name": "exampleExternalContract",
      "outputs": [
        {
          "internalType": "contract ExampleExternalContract",
          "name": "",
          "type": "address"
        }
      ],
      "stateMutability": "view",
      "type": "function"
    },
    {
      "inputs": [],
      "name": "execute",
      "outputs": [],
      "stateMutability": "nonpayable",
      "type": "function"
    },
    {
      "inputs": [],
      "name": "owner",
      "outputs": [
        {
          "internalType": "address payable",
          "name": "",
          "type": "address"
        }
      ],
      "stateMutability": "view",
      "type": "function"
    },
    {
      "inputs": [],
      "name": "stake",
      "outputs": [],
      "stateMutability": "payable",
      "type": "function"
    },
    {
      "inputs": [],
      "name": "threshold",
      "outputs": [
        {
          "internalType": "uint256",
          "name": "",
          "type": "uint256"
        }
      ],
      "stateMutability": "view",
      "type": "function"
    },
    {
      "inputs": [],
      "name": "timeLeft",
      "outputs": [
        {
          "internalType": "uint256",
          "name": "",
          "type": "uint256"
        }
      ],
      "stateMutability": "view",
      "type": "function"
    },
    {
      "inputs": [],
      "name": "totalStaked",
      "outputs": [
        {
          "internalType": "uint256",
          "name": "",
          "type": "uint256"
        }
      ],
      "stateMutability": "view",
      "type": "function"
    },
    {
      "inputs": [],
      "name": "withdraw",
      "outputs": [],
      "stateMutability": "nonpayable",
      "type": "function"
    },
    {
      "stateMutability": "payable",
      "type": "receive"
    }
  ],
  "transactionHash": "0xa050b0d7090e8d2fc56bf82d990f479470f259e82e7029224f841e6e09a7b4c8",
  "args": [
    "0x4ed7c70F96B99c776995fB64377f0d4aB3B0e1C1"
  ],
  "solcInputHash": "b7cc0a7229b31e1dc2fdcb83273e0b8c",
  "bytecode": "0x6080604052600280546001600160a01b031916301790554760035561002542601e6100ad565b6004556005805460ff19169055604051610a38388190039081908339810160408190526100519161007f565b600080546001600160a01b039092166001600160a01b031992831617905560018054909116331790556100d1565b600060208284031215610090578081fd5b81516001600160a01b03811681146100a6578182fd5b9392505050565b600082198211156100cc57634e487b7160e01b81526011600452602481fd5b500190565b610958806100e06000396000f3fe60806040526004361061009a5760003560e01c806361461954116100615780636146195414610137578063817b1cd21461014c5780638da5cb5b146101625780639f75f2271461019a578063b69ef8a8146101ba578063bef3a083146101ce57005b80631300a6d1146100a957806327e235e3146100d15780633a4b66f1146100fe5780633ccfd60b1461010657806342cde4e81461011b57005b366100a7576100a76101e4565b005b3480156100b557600080fd5b506100be610401565b6040519081526020015b60405180910390f35b3480156100dd57600080fd5b506100be6100ec366004610724565b60076020526000908152604090205481565b6100a76101e4565b34801561011257600080fd5b506100a7610428565b34801561012757600080fd5b506100be670de0b6b3a764000081565b34801561014357600080fd5b506100a7610516565b34801561015857600080fd5b506100be60065481565b34801561016e57600080fd5b50600154610182906001600160a01b031681565b6040516001600160a01b0390911681526020016100c8565b3480156101a657600080fd5b50600054610182906001600160a01b031681565b3480156101c657600080fd5b5030316100be565b3480156101da57600080fd5b506100be60045481565b6001546040516000916001600160a01b03169034908381818185875af1925050503d8060008114610231576040519150601f19603f3d011682016040523d82523d6000602084013e610236565b606091505b505090508061028b5760405162461bcd60e51b815260206004820152601760248201527f4661696c656420746f20636f6c6c656374206d6f6e6579000000000000000000604482015260640160405180910390fd5b6102ba6040518060800160405280605e8152602001610893605e91396002546001600160a01b03163334610623565b33600090815260076020526040812080543492906102d9908490610823565b9091555050604080518082018252601981527f7374616b653a3a62616c616e63657320202573206574686572000000000000006020808301919091523360009081526007909152919091205461032f9190610672565b336000908152600760205260408120546006805491929091610352908490610823565b92505081905550346003600082825461036b9190610823565b925050819055506103966040518060600160405280602a8152602001610869602a9139600354610672565b6103ba6040518060600160405280603281526020016108f1603291393080316106b7565b336000818152600760209081526040918290205491519182527febedb8b3c678666e7f36970bc8f57abf6d8fa2e828c0da91ea5b75bf68ed101a910160405180910390a250565b600060045442106104125750600090565b600042600454610422919061083b565b92915050565b60055460ff16156104b5573360009081526007602052604090205460065481116104755733600090815260076020526040812054600680549192909161046f90849061083b565b90915550505b33600081815260076020526040808220829055514780156108fc0292909190818181858888f193505050501580156104b1573d6000803e3d6000fd5b5050565b7fcf34ef537ac33ee1ac626ca1587a0a7e8e51561e5514f8cb36afa1c5102b3bab60405161050c906020808252601590820152744e6f74206f70656e20666f7220776974686472617760581b604082015260600190565b60405180910390a1565b6004543090610523610401565b1180156105415750670de0b6b3a7640000816001600160a01b031631105b1561054e5761054e6101e4565b600454610559610401565b1080156105775750670de0b6b3a7640000816001600160a01b031631115b156105e45760008054906101000a90046001600160a01b03166001600160a01b031663522e1177476040518263ffffffff1660e01b81526004016000604051808303818588803b1580156105ca57600080fd5b505af11580156105de573d6000803e3d6000fd5b50505050505b6004546105ef610401565b10801561060d5750670de0b6b3a7640000816001600160a01b031631105b15610620576005805460ff191660011790555b50565b61066c8484848460405160240161063d949392919061079d565b60408051601f198184030181529190526020810180516001600160e01b0316636eb7943d60e01b179052610703565b50505050565b6104b18282604051602401610688929190610801565b60408051601f198184030181529190526020810180516001600160e01b03166309710a9d60e41b179052610703565b6106fe8383836040516024016106cf939291906107d3565b60408051601f198184030181529190526020810180516001600160e01b03166307c8121760e01b179052610703565b505050565b80516a636f6e736f6c652e6c6f67602083016000808483855afa5050505050565b600060208284031215610735578081fd5b81356001600160a01b038116811461074b578182fd5b9392505050565b60008151808452815b818110156107775760208185018101518683018201520161075b565b818111156107885782602083870101525b50601f01601f19169290920160200192915050565b6080815260006107b06080830187610752565b6001600160a01b0395861660208401529390941660408201526060015292915050565b6060815260006107e66060830186610752565b6001600160a01b039490941660208301525060400152919050565b6040815260006108146040830185610752565b90508260208301529392505050565b6000821982111561083657610836610852565b500190565b60008282101561084d5761084d610852565b500390565b634e487b7160e01b600052601160045260246000fdfe7374616b653a3a5374616b657220616464726573732062616c616e6365206973202025732065746865727374616b653a3a20616d6f756e7420726563656976656420666f72205374616b657220636f6e747261637420416464726573733a2025732066726f6d2053656e64657220257320666f72207468652076616c75653a2025732065746865727374616b653a3a636f6e74726163742062616c616e6365203a3a616464726573732020257320616e64202573206574686572a26469706673582212202ffcc8ad1cc8d1589a5ac476b3276f321497529311972cfe3664d0d926270b7064736f6c63430008040033",
  "devdoc": {
    "kind": "dev",
    "methods": {},
    "version": 1
  },
  "userdoc": {
    "kind": "user",
    "methods": {},
    "version": 1
  },
  "storageLayout": {
    "storage": [
      {
        "astId": 19,
        "contract": "contracts/Staker.sol:Staker",
        "label": "exampleExternalContract",
        "offset": 0,
        "slot": "0",
        "type": "t_contract(ExampleExternalContract)12"
      },
      {
        "astId": 21,
        "contract": "contracts/Staker.sol:Staker",
        "label": "owner",
        "offset": 0,
        "slot": "1",
        "type": "t_address_payable"
      },
      {
        "astId": 27,
        "contract": "contracts/Staker.sol:Staker",
        "label": "stakerAddress",
        "offset": 0,
        "slot": "2",
        "type": "t_address"
      },
      {
        "astId": 34,
        "contract": "contracts/Staker.sol:Staker",
        "label": "stakerBalance",
        "offset": 0,
        "slot": "3",
        "type": "t_uint256"
      },
      {
        "astId": 40,
        "contract": "contracts/Staker.sol:Staker",
        "label": "deadLine",
        "offset": 0,
        "slot": "4",
        "type": "t_uint256"
      },
      {
        "astId": 43,
        "contract": "contracts/Staker.sol:Staker",
        "label": "openForWithdraw",
        "offset": 0,
        "slot": "5",
        "type": "t_bool"
      },
      {
        "astId": 45,
        "contract": "contracts/Staker.sol:Staker",
        "label": "totalStaked",
        "offset": 0,
        "slot": "6",
        "type": "t_uint256"
      },
      {
        "astId": 52,
        "contract": "contracts/Staker.sol:Staker",
        "label": "balances",
        "offset": 0,
        "slot": "7",
        "type": "t_mapping(t_address,t_uint256)"
      }
    ],
    "types": {
      "t_address": {
        "encoding": "inplace",
        "label": "address",
        "numberOfBytes": "20"
      },
      "t_address_payable": {
        "encoding": "inplace",
        "label": "address payable",
        "numberOfBytes": "20"
      },
      "t_bool": {
        "encoding": "inplace",
        "label": "bool",
        "numberOfBytes": "1"
      },
      "t_contract(ExampleExternalContract)12": {
        "encoding": "inplace",
        "label": "contract ExampleExternalContract",
        "numberOfBytes": "20"
      },
      "t_mapping(t_address,t_uint256)": {
        "encoding": "mapping",
        "key": "t_address",
        "label": "mapping(address => uint256)",
        "numberOfBytes": "32",
        "value": "t_uint256"
      },
      "t_uint256": {
        "encoding": "inplace",
        "label": "uint256",
        "numberOfBytes": "32"
      }
    }
  }
}